:1000000012C022C021C020C01FC01EC01DC01CC005
:100010001BC01AC019C018C017C016C015C014C024
:1000200013C012C011C011241FBECFEDCDBF10E010
:10003000A0E6B0E0EAEDF2E002C005900D92AA3A27
:10004000B107D9F7D6D047C1DBCF92B989B988E1DA
:100050008AB98EE083B90895CF93DF93FC01908134
:10006000992361F0ABE2B0E0CCE2D0E08C9185FF67
:10007000FDCF9883918131969923C1F7DF91CF917C
:100080000895EBE2F0E080818823ECF78CB10895CD
:10009000FC018081823519F020E030E00BC090E057
:1000A000E60FF71F80818E3609F091E081E0892705
:1000B000282F30E0822F932F0895AF92BF92CF92D6
:1000C000DF92EF92FF920F931F93CF93DF937C0108
:1000D000DC011296EC91EE36B1F1C2E0D0E00F2EC9
:1000E000F0E6AF2EF0E0BF2EF02D08E310E0CC24B8
:1000F000DD24C394E03369F4F8012081C6010C2E9D
:1001000002C0880F991F0A94E2F7809582238083AA
:1001100010C0E13361F4D8012C91C6010C2E02C04D
:10012000880F991F0A94E2F7282B2C9302C0C5016F
:1001300093DF2196F701EC0FFD1FE081EE3619F0F9
:10014000C830D105B9F6DF91CF911F910F91FF9083
:10015000EF90DF90CF90BF90AF900895DF93CF9353
:10016000CDB7DEB72A970FB6F894DEBF0FBECDBF6E
:10017000DE011196EBE6F0E086E001900D928150F1
:10018000E1F71F82188619861A86FE01329622E050
:1001900030E0A8E3B0E050E341E38C9190E0022E20
:1001A00002C0959587950A94E2F780FF02C04083CC
:1001B0000AC08C9190E0022E02C0959587950A9412
:1001C000E2F780FF50832F5F3F4F31962830310593
:1001D00021F78AE088878DE08987CE0101963CDF90
:1001E0002A960FB6F894DEBF0FBECDBFCF91DF9138
:1001F00008956F927F928F929F92AF92BF92CF920B
:10020000DF92EF92FF920F931F93DF93CF93CDB7BF
:10021000DEB72A970FB6F894DEBF0FBECDBF8FEFC3
:1002200087BB18BA80E490E010DFDE011196EFE999
:10023000F0E085E001900D928150E1F7FE013696E5
:1002400085E0DF011D928A95E9F700E010E07E016C
:100250000894E11CF11C0F2EF4E9AF2EF0E0BF2E44
:10026000F02DCC24DD240F2EF9E88F2EF0E09F2E08
:10027000F02D0F2EF5E76F2EF0E07F2EF02D09C048
:1002800000DFF701E00FF11F80838E3629F00F5F4A
:100290001F4F09301105A4F3C701B801F9DE892BFE
:1002A000B1F08A81893461F0833531F0843459F4B6
:1002B000C301D2DE8601EDCFC701FFDE8601E9CFA3
:1002C0004DDF8601E6CFC401C7DE8601E2CFC5015E
:0A02D000C3DE8601DECFF894FFCFF5
:1002DA00526572726F7230330A0D0052746573740C
:1002EA00000000000052656C6179436172644279D2
:1002FA0042696742656E0A0D00526572726F72300A
:10030A00320A0D00526572726F7230310A0D007432
:0A031A00657374000000000000008D
:00000001FF
